{
  "_format": "hh-sol-artifact-1",
  "contractName": "SushiFarmer",
  "sourceName": "contracts/SushiFarmer.sol",
  "abi": [
    {
      "inputs": [
        {
          "internalType": "contract IMiniChefV2",
          "name": "_chef",
          "type": "address"
        }
      ],
      "stateMutability": "nonpayable",
      "type": "constructor"
    },
    {
      "anonymous": false,
      "inputs": [
        {
          "indexed": false,
          "internalType": "uint256",
          "name": "pid",
          "type": "uint256"
        },
        {
          "indexed": false,
          "internalType": "address",
          "name": "pair",
          "type": "address"
        },
        {
          "indexed": false,
          "internalType": "uint256",
          "name": "amount",
          "type": "uint256"
        }
      ],
      "name": "LPDeposited",
      "type": "event"
    },
    {
      "anonymous": false,
      "inputs": [
        {
          "indexed": true,
          "internalType": "address",
          "name": "previousOwner",
          "type": "address"
        },
        {
          "indexed": true,
          "internalType": "address",
          "name": "newOwner",
          "type": "address"
        }
      ],
      "name": "OwnershipTransferred",
      "type": "event"
    },
    {
      "inputs": [],
      "name": "ONE_HUNDRED_PERCENT",
      "outputs": [
        {
          "internalType": "uint256",
          "name": "",
          "type": "uint256"
        }
      ],
      "stateMutability": "view",
      "type": "function"
    },
    {
      "inputs": [
        {
          "internalType": "uint256",
          "name": "_pid",
          "type": "uint256"
        },
        {
          "internalType": "address",
          "name": "_pair",
          "type": "address"
        },
        {
          "components": [
            {
              "internalType": "address[]",
              "name": "tokenAPath",
              "type": "address[]"
            },
            {
              "internalType": "address[]",
              "name": "tokenBPath",
              "type": "address[]"
            }
          ],
          "internalType": "struct Farmer.RewardsForTokensPaths[]",
          "name": "_data",
          "type": "tuple[]"
        }
      ],
      "name": "autoCompoundExistingLPPosition",
      "outputs": [],
      "stateMutability": "nonpayable",
      "type": "function"
    },
    {
      "inputs": [],
      "name": "chef",
      "outputs": [
        {
          "internalType": "contract IMiniChefV2",
          "name": "",
          "type": "address"
        }
      ],
      "stateMutability": "view",
      "type": "function"
    },
    {
      "inputs": [
        {
          "internalType": "uint256",
          "name": "_pid",
          "type": "uint256"
        }
      ],
      "name": "claimRewards",
      "outputs": [],
      "stateMutability": "nonpayable",
      "type": "function"
    },
    {
      "inputs": [
        {
          "components": [
            {
              "internalType": "uint256",
              "name": "pid",
              "type": "uint256"
            },
            {
              "internalType": "uint256",
              "name": "amountADesired",
              "type": "uint256"
            },
            {
              "internalType": "uint256",
              "name": "amountBDesired",
              "type": "uint256"
            },
            {
              "internalType": "address",
              "name": "pair",
              "type": "address"
            },
            {
              "internalType": "address",
              "name": "tokenA",
              "type": "address"
            },
            {
              "internalType": "address",
              "name": "tokenB",
              "type": "address"
            }
          ],
          "internalType": "struct Farmer.CreateLPData",
          "name": "_data",
          "type": "tuple"
        }
      ],
      "name": "createNewLPAndDeposit",
      "outputs": [],
      "stateMutability": "nonpayable",
      "type": "function"
    },
    {
      "inputs": [
        {
          "internalType": "address",
          "name": "_tokenA",
          "type": "address"
        },
        {
          "internalType": "address",
          "name": "_tokenB",
          "type": "address"
        },
        {
          "internalType": "uint256",
          "name": "_amountADesired",
          "type": "uint256"
        },
        {
          "internalType": "uint256",
          "name": "_amountBDesired",
          "type": "uint256"
        }
      ],
      "name": "getLPTokens",
      "outputs": [
        {
          "internalType": "uint256",
          "name": "",
          "type": "uint256"
        }
      ],
      "stateMutability": "nonpayable",
      "type": "function"
    },
    {
      "inputs": [
        {
          "internalType": "address",
          "name": "_token",
          "type": "address"
        },
        {
          "internalType": "uint256",
          "name": "_amountTokensDesired",
          "type": "uint256"
        },
        {
          "internalType": "uint256",
          "name": "_amountETHMin",
          "type": "uint256"
        },
        {
          "internalType": "uint256",
          "name": "_slippage",
          "type": "uint256"
        }
      ],
      "name": "getLPTokensETH",
      "outputs": [
        {
          "internalType": "uint256",
          "name": "",
          "type": "uint256"
        }
      ],
      "stateMutability": "payable",
      "type": "function"
    },
    {
      "inputs": [
        {
          "internalType": "address",
          "name": "_pair",
          "type": "address"
        }
      ],
      "name": "lpBalance",
      "outputs": [
        {
          "internalType": "uint256",
          "name": "_balance",
          "type": "uint256"
        }
      ],
      "stateMutability": "nonpayable",
      "type": "function"
    },
    {
      "inputs": [],
      "name": "owner",
      "outputs": [
        {
          "internalType": "address",
          "name": "",
          "type": "address"
        }
      ],
      "stateMutability": "view",
      "type": "function"
    },
    {
      "inputs": [
        {
          "internalType": "address",
          "name": "_tokenA",
          "type": "address"
        },
        {
          "internalType": "address",
          "name": "_tokenB",
          "type": "address"
        },
        {
          "internalType": "uint256",
          "name": "_liquidity",
          "type": "uint256"
        },
        {
          "internalType": "uint256",
          "name": "_amountAMin",
          "type": "uint256"
        },
        {
          "internalType": "uint256",
          "name": "_amountBMin",
          "type": "uint256"
        }
      ],
      "name": "removeLP",
      "outputs": [],
      "stateMutability": "nonpayable",
      "type": "function"
    },
    {
      "inputs": [
        {
          "internalType": "address",
          "name": "_token",
          "type": "address"
        },
        {
          "internalType": "uint256",
          "name": "_liquidity",
          "type": "uint256"
        },
        {
          "internalType": "uint256",
          "name": "_amountTokensMin",
          "type": "uint256"
        },
        {
          "internalType": "uint256",
          "name": "_amountETHMin",
          "type": "uint256"
        }
      ],
      "name": "removeLPETH",
      "outputs": [],
      "stateMutability": "nonpayable",
      "type": "function"
    },
    {
      "inputs": [],
      "name": "renounceOwnership",
      "outputs": [],
      "stateMutability": "nonpayable",
      "type": "function"
    },
    {
      "inputs": [],
      "name": "router",
      "outputs": [
        {
          "internalType": "contract IUniswapV2Router02",
          "name": "",
          "type": "address"
        }
      ],
      "stateMutability": "view",
      "type": "function"
    },
    {
      "inputs": [
        {
          "internalType": "address",
          "name": "_newOwner",
          "type": "address"
        }
      ],
      "name": "setOwner",
      "outputs": [],
      "stateMutability": "nonpayable",
      "type": "function"
    },
    {
      "inputs": [
        {
          "internalType": "address",
          "name": "newOwner",
          "type": "address"
        }
      ],
      "name": "transferOwnership",
      "outputs": [],
      "stateMutability": "nonpayable",
      "type": "function"
    },
    {
      "inputs": [],
      "name": "withdrawETH",
      "outputs": [],
      "stateMutability": "payable",
      "type": "function"
    },
    {
      "inputs": [
        {
          "internalType": "address",
          "name": "_asset",
          "type": "address"
        },
        {
          "internalType": "uint256",
          "name": "_amount",
          "type": "uint256"
        }
      ],
      "name": "withdrawFunds",
      "outputs": [],
      "stateMutability": "nonpayable",
      "type": "function"
    },
    {
      "inputs": [
        {
          "internalType": "uint256",
          "name": "_pid",
          "type": "uint256"
        },
        {
          "internalType": "uint256",
          "name": "_amount",
          "type": "uint256"
        }
      ],
      "name": "withdrawLP",
      "outputs": [],
      "stateMutability": "nonpayable",
      "type": "function"
    },
    {
      "stateMutability": "payable",
      "type": "receive"
    }
  ],
  "bytecode": "0x60806040523480156200001157600080fd5b506040516200261c3803806200261c8339810160408190526200003491620000d8565b731b02da8cb0d097eb8d57a175b88c7d8b47997506600062000055620000d4565b600080546001600160a01b0319166001600160a01b0383169081178255604051929350917f8be0079c531659141344cd1fd0a4f28419497f9722a3daafe3b4186f6b6457e0908290a350600180546001600160a01b039283166001600160a01b0319918216179091556002805493909216921691909117905562000108565b3390565b600060208284031215620000ea578081fd5b81516001600160a01b038116811462000101578182fd5b9392505050565b61250480620001186000396000f3fe60806040526004361061012d5760003560e01c806391918d64116100a5578063dd0081c711610074578063e29e097411610059578063e29e0974146102ed578063f2fde38b1461030d578063f887ea401461032d57610134565b8063dd0081c7146102d0578063e086e5ec146102e557610134565b806391918d6414610250578063a17ffd6614610270578063b1296fe114610290578063c1075329146102b057610134565b80633d7aeb37116100fc5780637cda45bf116100e15780637cda45bf146101fb5780637fdb69eb1461021b5780638da5cb5b1461023b57610134565b80633d7aeb37146101c6578063715018a6146101e657610134565b80630962ef791461013957806313af40351461015b5780631fc8bc5d1461017b578063358da89a146101a657610134565b3661013457005b600080fd5b34801561014557600080fd5b50610159610154366004611e04565b610342565b005b34801561016757600080fd5b50610159610176366004611b3f565b610396565b34801561018757600080fd5b506101906103de565b60405161019d919061200b565b60405180910390f35b3480156101b257600080fd5b506101596101c1366004611e34565b6103ed565b3480156101d257600080fd5b506101596101e1366004611bbc565b6107b9565b3480156101f257600080fd5b506101596109b0565b34801561020757600080fd5b50610159610216366004611c37565b610a46565b34801561022757600080fd5b50610159610236366004611d26565b610cb3565b34801561024757600080fd5b50610190610d09565b34801561025c57600080fd5b5061015961026b366004611eba565b610d18565b61028361027e366004611c37565b610dc1565b60405161019d9190612314565b34801561029c57600080fd5b506102836102ab366004611b77565b610e17565b3480156102bc57600080fd5b506101596102cb366004611c0c565b610e64565b3480156102dc57600080fd5b50610283610f4a565b610159610f50565b3480156102f957600080fd5b50610283610308366004611b3f565b61100b565b34801561031957600080fd5b50610159610328366004611b3f565b611090565b34801561033957600080fd5b5061019061115d565b61034a61116c565b6001600160a01b031661035b610d09565b6001600160a01b03161461038a5760405162461bcd60e51b8152600401610381906122a8565b60405180910390fd5b61039381611170565b50565b61039e61116c565b6001600160a01b03166103af610d09565b6001600160a01b0316146103d55760405162461bcd60e51b8152600401610381906122a8565b61039381611090565b6002546001600160a01b031681565b6103f561116c565b6001600160a01b0316610406610d09565b6001600160a01b03161461042c5760405162461bcd60e51b8152600401610381906122a8565b61043584611170565b60005b8181101561047257606061046884848481811061045157fe5b90506020028101906104639190612437565b6111d7565b5050600101610438565b5060008282600081811061048257fe5b90506020028101906104949190612437565b61049e90806123f0565b6001858560008181106104ad57fe5b90506020028101906104bf9190612437565b6104c990806123f0565b9050038181106104d557fe5b90506020020160208101906104ea9190611b3f565b90506000838360008181106104fb57fe5b905060200281019061050d9190612437565b61051b9060208101906123f0565b60018686600081811061052a57fe5b905060200281019061053c9190612437565b61054a9060208101906123f0565b90500381811061055657fe5b905060200201602081019061056b9190611b3f565b905060008061057a84846113c6565b91509150600080886001600160a01b0316630902f1ac6040518163ffffffff1660e01b815260040160606040518083038186803b1580156105ba57600080fd5b505afa1580156105ce573d6000803e3d6000fd5b505050506040513d601f19601f820116820180604052508101906105f29190611db0565b506001546040516370a0823160e01b81529294509092506000916001600160a01b039182169163ad615dec91908816906370a082319061063690309060040161200b565b60206040518083038186803b15801561064e57600080fd5b505afa158015610662573d6000803e3d6000fd5b505050506040513d601f19601f820116820180604052508101906106869190611e1c565b85856040518463ffffffff1660e01b81526004016106a69392919061236d565b60206040518083038186803b1580156106be57600080fd5b505afa1580156106d2573d6000803e3d6000fd5b505050506040513d601f19601f820116820180604052508101906106f69190611e1c565b9050610700611aee565b8b81526001600160a01b03808c1660608301528681166080830181905290861660a08301526040516370a0823160e01b81526370a082319061074690309060040161200b565b60206040518083038186803b15801561075e57600080fd5b505afa158015610772573d6000803e3d6000fd5b505050506040513d601f19601f820116820180604052508101906107969190611e1c565b6020820152604081018290526107ab81611450565b505050505050505050505050565b6107c161116c565b6001600160a01b03166107d2610d09565b6001600160a01b0316146107f85760405162461bcd60e51b8152600401610381906122a8565b600061088a600160009054906101000a90046001600160a01b03166001600160a01b031663c45a01556040518163ffffffff1660e01b815260040160206040518083038186803b15801561084b57600080fd5b505afa15801561085f573d6000803e3d6000fd5b505050506040513d601f19601f820116820180604052508101906108839190611b5b565b87876114d4565b60015460405163095ea7b360e01b81529192506001600160a01b038084169263095ea7b3926108bf921690889060040161201f565b602060405180830381600087803b1580156108d957600080fd5b505af11580156108ed573d6000803e3d6000fd5b505050506040513d601f19601f820116820180604052508101906109119190611d06565b50600154604051635d5155ef60e11b815260009182916001600160a01b039091169063baa2abde90610953908b908b908b908b908b9030904290600401612038565b6040805180830381600087803b15801561096c57600080fd5b505af1158015610980573d6000803e3d6000fd5b505050506040513d601f19601f820116820180604052508101906109a49190611edb565b50505050505050505050565b6109b861116c565b6001600160a01b03166109c9610d09565b6001600160a01b0316146109ef5760405162461bcd60e51b8152600401610381906122a8565b600080546040516001600160a01b03909116907f8be0079c531659141344cd1fd0a4f28419497f9722a3daafe3b4186f6b6457e0908390a36000805473ffffffffffffffffffffffffffffffffffffffff19169055565b610a4e61116c565b6001600160a01b0316610a5f610d09565b6001600160a01b031614610a855760405162461bcd60e51b8152600401610381906122a8565b6000610b91600160009054906101000a90046001600160a01b03166001600160a01b031663c45a01556040518163ffffffff1660e01b815260040160206040518083038186803b158015610ad857600080fd5b505afa158015610aec573d6000803e3d6000fd5b505050506040513d601f19601f82011682018060405250810190610b109190611b5b565b600154604080516315ab88c960e31b8152905189926001600160a01b03169163ad5c4648916004808301926020929190829003018186803b158015610b5457600080fd5b505afa158015610b68573d6000803e3d6000fd5b505050506040513d601f19601f82011682018060405250810190610b8c9190611b5b565b6114d4565b60015460405163095ea7b360e01b81529192506001600160a01b038084169263095ea7b392610bc6921690889060040161201f565b602060405180830381600087803b158015610be057600080fd5b505af1158015610bf4573d6000803e3d6000fd5b505050506040513d601f19601f82011682018060405250810190610c189190611d06565b50600154604051629d473b60e21b815260009182916001600160a01b03909116906302751cec90610c57908a908a908a908a90309042906004016120c1565b6040805180830381600087803b158015610c7057600080fd5b505af1158015610c84573d6000803e3d6000fd5b505050506040513d601f19601f82011682018060405250810190610ca89190611edb565b505050505050505050565b610cbb61116c565b6001600160a01b0316610ccc610d09565b6001600160a01b031614610cf25760405162461bcd60e51b8152600401610381906122a8565b610393610d0436839003830183611d3d565b611450565b6000546001600160a01b031690565b610d2061116c565b6001600160a01b0316610d31610d09565b6001600160a01b031614610d575760405162461bcd60e51b8152600401610381906122a8565b600254604051630ad58d2f60e01b81526001600160a01b0390911690630ad58d2f90610d8b90859085903090600401612393565b600060405180830381600087803b158015610da557600080fd5b505af1158015610db9573d6000803e3d6000fd5b505050505050565b6000610dcb61116c565b6001600160a01b0316610ddc610d09565b6001600160a01b031614610e025760405162461bcd60e51b8152600401610381906122a8565b610e0e85858585611544565b95945050505050565b6000610e2161116c565b6001600160a01b0316610e32610d09565b6001600160a01b031614610e585760405162461bcd60e51b8152600401610381906122a8565b610e0e8585858561167d565b610e6c61116c565b6001600160a01b0316610e7d610d09565b6001600160a01b031614610ea35760405162461bcd60e51b8152600401610381906122a8565b60405163a9059cbb60e01b81526000906001600160a01b0384169063a9059cbb90610ed4903390869060040161201f565b602060405180830381600087803b158015610eee57600080fd5b505af1158015610f02573d6000803e3d6000fd5b505050506040513d601f19601f82011682018060405250810190610f269190611d06565b905080610f455760405162461bcd60e51b815260040161038190612159565b505050565b6103e881565b610f5861116c565b6001600160a01b0316610f69610d09565b6001600160a01b031614610f8f5760405162461bcd60e51b8152600401610381906122a8565b6000336001600160a01b031647604051610fa890612008565b60006040518083038185875af1925050503d8060008114610fe5576040519150601f19603f3d011682016040523d82523d6000602084013e610fea565b606091505b50509050806103935760405162461bcd60e51b815260040161038190612265565b6040516370a0823160e01b81526000906001600160a01b038316906370a082319061103a90309060040161200b565b60206040518083038186803b15801561105257600080fd5b505afa158015611066573d6000803e3d6000fd5b505050506040513d601f19601f8201168201806040525081019061108a9190611e1c565b92915050565b61109861116c565b6001600160a01b03166110a9610d09565b6001600160a01b0316146110cf5760405162461bcd60e51b8152600401610381906122a8565b6001600160a01b0381166110f55760405162461bcd60e51b8152600401610381906120fc565b600080546040516001600160a01b03808516939216917f8be0079c531659141344cd1fd0a4f28419497f9722a3daafe3b4186f6b6457e091a36000805473ffffffffffffffffffffffffffffffffffffffff19166001600160a01b0392909216919091179055565b6001546001600160a01b031681565b3390565b600254604051630c7e663b60e11b81526001600160a01b03909116906318fccc76906111a2908490309060040161231d565b600060405180830381600087803b1580156111bc57600080fd5b505af11580156111d0573d6000803e3d6000fd5b5050505050565b60608160006111e682806123f0565b60008181106111f157fe5b90506020020160208101906112069190611b3f565b6001546040516370a0823160e01b81529192506001600160a01b038084169263095ea7b3929091169083906370a082319061124590309060040161200b565b60206040518083038186803b15801561125d57600080fd5b505afa158015611271573d6000803e3d6000fd5b505050506040513d601f19601f820116820180604052508101906112959190611e1c565b6040518363ffffffff1660e01b81526004016112b292919061201f565b602060405180830381600087803b1580156112cc57600080fd5b505af11580156112e0573d6000803e3d6000fd5b505050506040513d601f19601f820116820180604052508101906113049190611d06565b50600061138e6002836001600160a01b03166370a08231306040518263ffffffff1660e01b8152600401611338919061200b565b60206040518083038186803b15801561135057600080fd5b505afa158015611364573d6000803e3d6000fd5b505050506040513d601f19601f820116820180604052508101906113889190611e1c565b9061182e565b905060606113a5826113a086806123f0565b611860565b905060606113ba836113a060208801886123f0565b90505050505050919050565b600080826001600160a01b0316846001600160a01b031614156113fb5760405162461bcd60e51b815260040161038190612190565b826001600160a01b0316846001600160a01b03161061141b57828461141e565b83835b90925090506001600160a01b0382166114495760405162461bcd60e51b8152600401610381906122dd565b9250929050565b611458611aee565b819050600061147982608001518360a001518460200151856040015161167d565b905061148e82606001518360000151836119a9565b815160608301516040517f6cf2f58d7e9cecf49601eca17132640c0609590256a2e3042e48e8c98ddb2372926114c79290918590612334565b60405180910390a1505050565b60008060006114e385856113c6565b915091508582826040516020016114fb929190611f73565b60405160208183030381529060405280519060200120604051602001611522929190611f9a565b60408051601f1981840301815291905280516020909101209695505050505050565b60015460405163095ea7b360e01b81526000916001600160a01b038088169263095ea7b392611579921690889060040161201f565b602060405180830381600087803b15801561159357600080fd5b505af11580156115a7573d6000803e3d6000fd5b505050506040513d601f19601f820116820180604052508101906115cb9190611d06565b5060006115d88584611a9b565b60015460405163f305d71960e01b8152919250600091829182916001600160a01b039091169063f305d7199061161c908c908c9089908d90309042906004016120c1565b606060405180830381600087803b15801561163657600080fd5b505af115801561164a573d6000803e3d6000fd5b505050506040513d601f19601f8201168201806040525081019061166e9190611efe565b9b9a5050505050505050505050565b60015460405163095ea7b360e01b81526000916001600160a01b038088169263095ea7b3926116b2921690879060040161201f565b602060405180830381600087803b1580156116cc57600080fd5b505af11580156116e0573d6000803e3d6000fd5b505050506040513d601f19601f820116820180604052508101906117049190611d06565b5060015460405163095ea7b360e01b81526001600160a01b038681169263095ea7b3926117399290911690869060040161201f565b602060405180830381600087803b15801561175357600080fd5b505af1158015611767573d6000803e3d6000fd5b505050506040513d601f19601f8201168201806040525081019061178b9190611d06565b5060015460405162e8e33760e81b8152600091829182916001600160a01b03169063e8e33700906117ce908b908b908b908b908290829030904290600401612078565b606060405180830381600087803b1580156117e857600080fd5b505af11580156117fc573d6000803e3d6000fd5b505050506040513d601f19601f820116820180604052508101906118209190611efe565b9a9950505050505050505050565b600080821161184f5760405162461bcd60e51b8152600401610381906121ed565b81838161185857fe5b049392505050565b60015460405163d06ca61f60e01b815260609182916001600160a01b039091169063d06ca61f9061189990889088908890600401612353565b60006040518083038186803b1580156118b157600080fd5b505afa1580156118c5573d6000803e3d6000fd5b505050506040513d6000823e601f3d908101601f191682016040526118ed9190810190611c71565b60015481519192506060916001600160a01b03909116906338ed17399088908590600019810190811061191c57fe5b6020026020010151888830426040518763ffffffff1660e01b8152600401611949969594939291906123b2565b600060405180830381600087803b15801561196357600080fd5b505af1158015611977573d6000803e3d6000fd5b505050506040513d6000823e601f3d908101601f1916820160405261199f9190810190611c71565b9695505050505050565b60025460405163095ea7b360e01b81526001600160a01b038581169263095ea7b3926119dd9290911690859060040161201f565b602060405180830381600087803b1580156119f757600080fd5b505af1158015611a0b573d6000803e3d6000fd5b505050506040513d601f19601f82011682018060405250810190611a2f9190611d06565b50600254604051638dbdbe6d60e01b81526001600160a01b0390911690638dbdbe6d90611a6490859085903090600401612393565b600060405180830381600087803b158015611a7e57600080fd5b505af1158015611a92573d6000803e3d6000fd5b50505050505050565b6000611aad6103e86113888585611ab4565b9392505050565b600082611ac35750600061108a565b82820282848281611ad057fe5b0414611aad5760405162461bcd60e51b815260040161038190612224565b6040518060c0016040528060008152602001600081526020016000815260200160006001600160a01b0316815260200160006001600160a01b0316815260200160006001600160a01b031681525090565b600060208284031215611b50578081fd5b8135611aad8161249d565b600060208284031215611b6c578081fd5b8151611aad8161249d565b60008060008060808587031215611b8c578283fd5b8435611b978161249d565b93506020850135611ba78161249d565b93969395505050506040820135916060013590565b600080600080600060a08688031215611bd3578081fd5b8535611bde8161249d565b94506020860135611bee8161249d565b94979496505050506040830135926060810135926080909101359150565b60008060408385031215611c1e578182fd5b8235611c298161249d565b946020939093013593505050565b60008060008060808587031215611c4c578384fd5b8435611c578161249d565b966020860135965060408601359560600135945092505050565b60006020808385031215611c83578182fd5b825167ffffffffffffffff811115611c99578283fd5b8301601f81018513611ca9578283fd5b8051611cbc611cb78261247d565b612456565b8181528381019083850185840285018601891015611cd8578687fd5b8694505b83851015611cfa578051835260019490940193918501918501611cdc565b50979650505050505050565b600060208284031215611d17578081fd5b81518015158114611aad578182fd5b600060c08284031215611d37578081fd5b50919050565b600060c08284031215611d4e578081fd5b611d5860c0612456565b8235815260208301356020820152604083013560408201526060830135611d7e8161249d565b60608201526080830135611d918161249d565b608082015260a0830135611da48161249d565b60a08201529392505050565b600080600060608486031215611dc4578283fd5b8351611dcf816124b2565b6020850151909350611de0816124b2565b604085015190925063ffffffff81168114611df9578182fd5b809150509250925092565b600060208284031215611e15578081fd5b5035919050565b600060208284031215611e2d578081fd5b5051919050565b60008060008060608587031215611e49578182fd5b843593506020850135611e5b8161249d565b9250604085013567ffffffffffffffff80821115611e77578384fd5b818701915087601f830112611e8a578384fd5b813581811115611e98578485fd5b8860208083028501011115611eab578485fd5b95989497505060200194505050565b60008060408385031215611ecc578182fd5b50508035926020909101359150565b60008060408385031215611eed578182fd5b505080516020909101519092909150565b600080600060608486031215611f12578081fd5b8351925060208401519150604084015190509250925092565b60008284526020808501945082825b85811015611f68578135611f4d8161249d565b6001600160a01b031687529582019590820190600101611f3a565b509495945050505050565b6bffffffffffffffffffffffff19606093841b811682529190921b16601482015260280190565b7fff00000000000000000000000000000000000000000000000000000000000000815260609290921b6bffffffffffffffffffffffff1916600183015260158201527fe18a34eb0e04b04f7a0ac29a6e80748dca96319b42c54d679cb821dca90c6303603582015260550190565b90565b6001600160a01b0391909116815260200190565b6001600160a01b03929092168252602082015260400190565b6001600160a01b039788168152958716602087015260408601949094526060850192909252608084015290921660a082015260c081019190915260e00190565b6001600160a01b039889168152968816602088015260408701959095526060860193909352608085019190915260a084015290921660c082015260e08101919091526101000190565b6001600160a01b039687168152602081019590955260408501939093526060840191909152909216608082015260a081019190915260c00190565b60208082526026908201527f4f776e61626c653a206e6577206f776e657220697320746865207a65726f206160408201527f6464726573730000000000000000000000000000000000000000000000000000606082015260800190565b6020808252601f908201527f53757368694661726d65723a205769746864726177616c206661696c65642e00604082015260600190565b60208082526025908201527f556e697377617056324c6962726172793a204944454e544943414c5f4144445260408201527f4553534553000000000000000000000000000000000000000000000000000000606082015260800190565b6020808252601a908201527f536166654d6174683a206469766973696f6e206279207a65726f000000000000604082015260600190565b60208082526021908201527f536166654d6174683a206d756c7469706c69636174696f6e206f766572666c6f6040820152607760f81b606082015260800190565b60208082526023908201527f53757368694661726d65723a20455448205769746864726177616c206661696c60408201526232b21760e91b606082015260800190565b6020808252818101527f4f776e61626c653a2063616c6c6572206973206e6f7420746865206f776e6572604082015260600190565b6020808252601e908201527f556e697377617056324c6962726172793a205a45524f5f414444524553530000604082015260600190565b90815260200190565b9182526001600160a01b0316602082015260400190565b9283526001600160a01b03919091166020830152604082015260600190565b600084825260406020830152610e0e604083018486611f2b565b9283526dffffffffffffffffffffffffffff918216602084015216604082015260600190565b92835260208301919091526001600160a01b0316604082015260600190565b600087825286602083015260a060408301526123d260a083018688611f2b565b6001600160a01b039490941660608301525060800152949350505050565b6000808335601e19843603018112612406578283fd5b83018035915067ffffffffffffffff821115612420578283fd5b602090810192508102360382131561144957600080fd5b60008235603e1983360301811261244c578182fd5b9190910192915050565b60405181810167ffffffffffffffff8111828210171561247557600080fd5b604052919050565b600067ffffffffffffffff821115612493578081fd5b5060209081020190565b6001600160a01b038116811461039357600080fd5b6dffffffffffffffffffffffffffff8116811461039357600080fdfea264697066735822122007662dd6d5310e086378f0c8b9b4db36d3d77e7b0e0095c56bf88c85f6be2d4564736f6c634300060c0033",
  "linkReferences": {},
  "deployedLinkReferences": {}
}